{
  "address": "0x71C95911E9a5D330f4D621842EC243EE1343292e",
  "abi": [
    {
      "inputs": [
        {
          "internalType": "address",
          "name": "priceFeedAddress",
          "type": "address"
        }
      ],
      "stateMutability": "nonpayable",
      "type": "constructor"
    },
    {
      "inputs": [],
      "name": "NotOwner",
      "type": "error"
    },
    {
      "stateMutability": "payable",
      "type": "fallback"
    },
    {
      "inputs": [],
      "name": "MINIMUM_USD",
      "outputs": [
        {
          "internalType": "uint256",
          "name": "",
          "type": "uint256"
        }
      ],
      "stateMutability": "view",
      "type": "function"
    },
    {
      "inputs": [
        {
          "internalType": "address",
          "name": "",
          "type": "address"
        }
      ],
      "name": "addressToAmount",
      "outputs": [
        {
          "internalType": "uint256",
          "name": "",
          "type": "uint256"
        }
      ],
      "stateMutability": "view",
      "type": "function"
    },
    {
      "inputs": [],
      "name": "fund",
      "outputs": [],
      "stateMutability": "payable",
      "type": "function"
    },
    {
      "inputs": [
        {
          "internalType": "uint256",
          "name": "",
          "type": "uint256"
        }
      ],
      "name": "funders",
      "outputs": [
        {
          "internalType": "address",
          "name": "",
          "type": "address"
        }
      ],
      "stateMutability": "view",
      "type": "function"
    },
    {
      "inputs": [],
      "name": "i_owner",
      "outputs": [
        {
          "internalType": "address",
          "name": "",
          "type": "address"
        }
      ],
      "stateMutability": "view",
      "type": "function"
    },
    {
      "inputs": [],
      "name": "priceFeed",
      "outputs": [
        {
          "internalType": "contract AggregatorV3Interface",
          "name": "",
          "type": "address"
        }
      ],
      "stateMutability": "view",
      "type": "function"
    },
    {
      "inputs": [],
      "name": "withdraw",
      "outputs": [],
      "stateMutability": "nonpayable",
      "type": "function"
    },
    {
      "stateMutability": "payable",
      "type": "receive"
    }
  ],
  "transactionHash": "0xe2c4000130377fc0388204e9892fc95794ad7d4f8cedc6b3cdcb54985d16bdeb",
  "args": [
    "0x8464135c8F25Da09e49BC8782676a84730C318bC"
  ],
  "numDeployments": 1,
  "solcInputHash": "d8337d07cc84b09736e63680673eab28",
  "bytecode": "0x60a060405234801561001057600080fd5b50604051610f18380380610f188339818101604052810190610032919061010f565b3373ffffffffffffffffffffffffffffffffffffffff1660808173ffffffffffffffffffffffffffffffffffffffff1681525050806000806101000a81548173ffffffffffffffffffffffffffffffffffffffff021916908373ffffffffffffffffffffffffffffffffffffffff1602179055505061013c565b600080fd5b600073ffffffffffffffffffffffffffffffffffffffff82169050919050565b60006100dc826100b1565b9050919050565b6100ec816100d1565b81146100f757600080fd5b50565b600081519050610109816100e3565b92915050565b600060208284031215610125576101246100ac565b5b6000610133848285016100fa565b91505092915050565b608051610dba61015e600039600081816102fc015261056e0152610dba6000f3fe6080604052600436106100745760003560e01c8063741bef1a1161004e578063741bef1a1461010c578063b60d428814610137578063dba6335f14610141578063dc0d3dff1461016c57610083565b80633c7e7d281461008d5780633ccfd60b146100ca5780636b69a592146100e157610083565b36610083576100816101a9565b005b61008b6101a9565b005b34801561009957600080fd5b506100b460048036038101906100af91906107a6565b6102e2565b6040516100c191906107ec565b60405180910390f35b3480156100d657600080fd5b506100df6102fa565b005b3480156100ed57600080fd5b506100f661053b565b60405161010391906107ec565b60405180910390f35b34801561011857600080fd5b50610121610548565b60405161012e9190610866565b60405180910390f35b61013f6101a9565b005b34801561014d57600080fd5b5061015661056c565b6040516101639190610890565b60405180910390f35b34801561017857600080fd5b50610193600480360381019061018e91906108d7565b610590565b6040516101a09190610890565b60405180910390f35b6802b5e3af16b18800006101e660008054906101000a900473ffffffffffffffffffffffffffffffffffffffff16346105cf90919063ffffffff16565b1015610227576040517f08c379a000000000000000000000000000000000000000000000000000000000815260040161021e90610961565b60405180910390fd5b6001339080600181540180825580915050600190039060005260206000200160009091909190916101000a81548173ffffffffffffffffffffffffffffffffffffffff021916908373ffffffffffffffffffffffffffffffffffffffff16021790555034600260003373ffffffffffffffffffffffffffffffffffffffff1673ffffffffffffffffffffffffffffffffffffffff16815260200190815260200160002060008282546102d991906109b0565b92505081905550565b60026020528060005260406000206000915090505481565b7f000000000000000000000000000000000000000000000000000000000000000073ffffffffffffffffffffffffffffffffffffffff163373ffffffffffffffffffffffffffffffffffffffff161461037f576040517f30cd747100000000000000000000000000000000000000000000000000000000815260040160405180910390fd5b60005b60018054905081101561042b576000600182815481106103a5576103a46109e4565b5b9060005260206000200160009054906101000a900473ffffffffffffffffffffffffffffffffffffffff1690506000600260008373ffffffffffffffffffffffffffffffffffffffff1673ffffffffffffffffffffffffffffffffffffffff1681526020019081526020016000208190555050808061042390610a13565b915050610382565b50600067ffffffffffffffff81111561044757610446610a5b565b5b6040519080825280602002602001820160405280156104755781602001602082028036833780820191505090505b506001908051906020019061048b92919061069c565b5060003373ffffffffffffffffffffffffffffffffffffffff16476040516104b290610abb565b60006040518083038185875af1925050503d80600081146104ef576040519150601f19603f3d011682016040523d82523d6000602084013e6104f4565b606091505b5050905080610538576040517f08c379a000000000000000000000000000000000000000000000000000000000815260040161052f90610b42565b60405180910390fd5b50565b6802b5e3af16b188000081565b60008054906101000a900473ffffffffffffffffffffffffffffffffffffffff1681565b7f000000000000000000000000000000000000000000000000000000000000000081565b600181815481106105a057600080fd5b906000526020600020016000915054906101000a900473ffffffffffffffffffffffffffffffffffffffff1681565b6000806105db8361060b565b90506000670de0b6b3a764000085836105f49190610b62565b6105fe9190610bd3565b9050809250505092915050565b6000808273ffffffffffffffffffffffffffffffffffffffff1663feaf968c6040518163ffffffff1660e01b815260040160a060405180830381865afa158015610659573d6000803e3d6000fd5b505050506040513d601f19601f8201168201806040525081019061067d9190610c91565b5050509150506402540be400816106949190610d0c565b915050919050565b828054828255906000526020600020908101928215610715579160200282015b828111156107145782518260006101000a81548173ffffffffffffffffffffffffffffffffffffffff021916908373ffffffffffffffffffffffffffffffffffffffff160217905550916020019190600101906106bc565b5b5090506107229190610726565b5090565b5b8082111561073f576000816000905550600101610727565b5090565b600080fd5b600073ffffffffffffffffffffffffffffffffffffffff82169050919050565b600061077382610748565b9050919050565b61078381610768565b811461078e57600080fd5b50565b6000813590506107a08161077a565b92915050565b6000602082840312156107bc576107bb610743565b5b60006107ca84828501610791565b91505092915050565b6000819050919050565b6107e6816107d3565b82525050565b600060208201905061080160008301846107dd565b92915050565b6000819050919050565b600061082c61082761082284610748565b610807565b610748565b9050919050565b600061083e82610811565b9050919050565b600061085082610833565b9050919050565b61086081610845565b82525050565b600060208201905061087b6000830184610857565b92915050565b61088a81610768565b82525050565b60006020820190506108a56000830184610881565b92915050565b6108b4816107d3565b81146108bf57600080fd5b50565b6000813590506108d1816108ab565b92915050565b6000602082840312156108ed576108ec610743565b5b60006108fb848285016108c2565b91505092915050565b600082825260208201905092915050565b7f204e6f7420656e6f756768206d6f6e65792073656e64203a2820000000000000600082015250565b600061094b601a83610904565b915061095682610915565b602082019050919050565b6000602082019050818103600083015261097a8161093e565b9050919050565b7f4e487b7100000000000000000000000000000000000000000000000000000000600052601160045260246000fd5b60006109bb826107d3565b91506109c6836107d3565b92508282019050808211156109de576109dd610981565b5b92915050565b7f4e487b7100000000000000000000000000000000000000000000000000000000600052603260045260246000fd5b6000610a1e826107d3565b91507fffffffffffffffffffffffffffffffffffffffffffffffffffffffffffffffff8203610a5057610a4f610981565b5b600182019050919050565b7f4e487b7100000000000000000000000000000000000000000000000000000000600052604160045260246000fd5b600081905092915050565b50565b6000610aa5600083610a8a565b9150610ab082610a95565b600082019050919050565b6000610ac682610a98565b9150819050919050565b7f5472616e73616374696f6e206661696c65642064756520746f20736f6d65206560008201527f72726f7200000000000000000000000000000000000000000000000000000000602082015250565b6000610b2c602483610904565b9150610b3782610ad0565b604082019050919050565b60006020820190508181036000830152610b5b81610b1f565b9050919050565b6000610b6d826107d3565b9150610b78836107d3565b9250828202610b86816107d3565b91508282048414831517610b9d57610b9c610981565b5b5092915050565b7f4e487b7100000000000000000000000000000000000000000000000000000000600052601260045260246000fd5b6000610bde826107d3565b9150610be9836107d3565b925082610bf957610bf8610ba4565b5b828204905092915050565b600069ffffffffffffffffffff82169050919050565b610c2381610c04565b8114610c2e57600080fd5b50565b600081519050610c4081610c1a565b92915050565b6000819050919050565b610c5981610c46565b8114610c6457600080fd5b50565b600081519050610c7681610c50565b92915050565b600081519050610c8b816108ab565b92915050565b600080600080600060a08688031215610cad57610cac610743565b5b6000610cbb88828901610c31565b9550506020610ccc88828901610c67565b9450506040610cdd88828901610c7c565b9350506060610cee88828901610c7c565b9250506080610cff88828901610c31565b9150509295509295909350565b6000610d1782610c46565b9150610d2283610c46565b9250828202610d3081610c46565b91507f80000000000000000000000000000000000000000000000000000000000000008414600084121615610d6857610d67610981565b5b8282058414831517610d7d57610d7c610981565b5b509291505056fea26469706673582212202c06735bbb82977d922c04c25c8dd1e67353138a42188114236543603db6236964736f6c63430008120033",
  "devdoc": {
    "kind": "dev",
    "methods": {},
    "version": 1
  },
  "userdoc": {
    "kind": "user",
    "methods": {},
    "version": 1
  },
  "storageLayout": {
    "storage": [
      {
        "astId": 63,
        "contract": "contracts/FundMe.sol:FundMe",
        "label": "priceFeed",
        "offset": 0,
        "slot": "0",
        "type": "t_contract(AggregatorV3Interface)45"
      },
      {
        "astId": 83,
        "contract": "contracts/FundMe.sol:FundMe",
        "label": "funders",
        "offset": 0,
        "slot": "1",
        "type": "t_array(t_address)dyn_storage"
      },
      {
        "astId": 87,
        "contract": "contracts/FundMe.sol:FundMe",
        "label": "addressToAmount",
        "offset": 0,
        "slot": "2",
        "type": "t_mapping(t_address,t_uint256)"
      }
    ],
    "types": {
      "t_address": {
        "encoding": "inplace",
        "label": "address",
        "numberOfBytes": "20"
      },
      "t_array(t_address)dyn_storage": {
        "base": "t_address",
        "encoding": "dynamic_array",
        "label": "address[]",
        "numberOfBytes": "32"
      },
      "t_contract(AggregatorV3Interface)45": {
        "encoding": "inplace",
        "label": "contract AggregatorV3Interface",
        "numberOfBytes": "20"
      },
      "t_mapping(t_address,t_uint256)": {
        "encoding": "mapping",
        "key": "t_address",
        "label": "mapping(address => uint256)",
        "numberOfBytes": "32",
        "value": "t_uint256"
      },
      "t_uint256": {
        "encoding": "inplace",
        "label": "uint256",
        "numberOfBytes": "32"
      }
    }
  }
}